{
    "contractName": "basicMath",
    "abi": [
        {
            "inputs": [
                {
                    "internalType": "uint256",
                    "name": "_numberA",
                    "type": "uint256"
                },
                {
                    "internalType": "uint256",
                    "name": "_numberB",
                    "type": "uint256"
                }
            ],
            "name": "add",
            "outputs": [
                {
                    "internalType": "uint256",
                    "name": "",
                    "type": "uint256"
                }
            ],
            "stateMutability": "pure",
            "type": "function"
        }
    ],
    "bytecode": "608060405234801561001057600080fd5b5060d88061001f6000396000f3fe6080604052348015600f57600080fd5b506004361060285760003560e01c8063771602f714602d575b600080fd5b603c60383660046061565b604e565b60405190815260200160405180910390f35b6000605882846082565b90505b92915050565b60008060408385031215607357600080fd5b50508035926020909101359150565b80820180821115605b57634e487b7160e01b600052601160045260246000fdfea26469706673582212201641bd5ec9f3a6dfb05752aa9ef003fe2cced40302656471717854c711ddbeae64736f6c63430008130033",
    "sourcePath": "/home/ruksad/Documents/learn/blockChain/SupplyChainSmartContract/contracts/basicMath.sol",
    "compiler": {
        "name": "solc",
        "version": "0.8.19+commit.7dd6d404"
    },
    "functionHashes": {
        "add(uint256,uint256)": "771602f7"
    },
    "gasEstimates": {
        "creation": {
            "codeDepositCost": "43200",
            "executionCost": "93",
            "totalCost": "43293"
        },
        "external": {
            "add(uint256,uint256)": "infinite"
        }
    }
}