{
    "contractName": "ERC20Token",
    "abi": [
        {
            "inputs": [
                {
                    "internalType": "uint256",
                    "name": "_initialAmount",
                    "type": "uint256"
                },
                {
                    "internalType": "string",
                    "name": "_tokenName",
                    "type": "string"
                },
                {
                    "internalType": "uint8",
                    "name": "_decimalUnits",
                    "type": "uint8"
                },
                {
                    "internalType": "string",
                    "name": "_tokenSymbol",
                    "type": "string"
                }
            ],
            "stateMutability": "nonpayable",
            "type": "constructor"
        },
        {
            "anonymous": false,
            "inputs": [
                {
                    "indexed": true,
                    "internalType": "address",
                    "name": "tokenOwner",
                    "type": "address"
                },
                {
                    "indexed": true,
                    "internalType": "address",
                    "name": "spender",
                    "type": "address"
                },
                {
                    "indexed": false,
                    "internalType": "uint256",
                    "name": "tokens",
                    "type": "uint256"
                }
            ],
            "name": "Approval",
            "type": "event"
        },
        {
            "anonymous": false,
            "inputs": [
                {
                    "indexed": true,
                    "internalType": "address",
                    "name": "from",
                    "type": "address"
                },
                {
                    "indexed": true,
                    "internalType": "address",
                    "name": "to",
                    "type": "address"
                },
                {
                    "indexed": false,
                    "internalType": "uint256",
                    "name": "tokens",
                    "type": "uint256"
                }
            ],
            "name": "Transfer",
            "type": "event"
        },
        {
            "inputs": [
                {
                    "internalType": "address",
                    "name": "_owner",
                    "type": "address"
                },
                {
                    "internalType": "address",
                    "name": "_spender",
                    "type": "address"
                }
            ],
            "name": "allowance",
            "outputs": [
                {
                    "internalType": "uint256",
                    "name": "remaining",
                    "type": "uint256"
                }
            ],
            "stateMutability": "view",
            "type": "function"
        },
        {
            "inputs": [
                {
                    "internalType": "address",
                    "name": "",
                    "type": "address"
                },
                {
                    "internalType": "address",
                    "name": "",
                    "type": "address"
                }
            ],
            "name": "allowed",
            "outputs": [
                {
                    "internalType": "uint256",
                    "name": "",
                    "type": "uint256"
                }
            ],
            "stateMutability": "view",
            "type": "function"
        },
        {
            "inputs": [
                {
                    "internalType": "address",
                    "name": "_spender",
                    "type": "address"
                },
                {
                    "internalType": "uint256",
                    "name": "_value",
                    "type": "uint256"
                }
            ],
            "name": "approve",
            "outputs": [
                {
                    "internalType": "bool",
                    "name": "success",
                    "type": "bool"
                }
            ],
            "stateMutability": "nonpayable",
            "type": "function"
        },
        {
            "inputs": [
                {
                    "internalType": "address",
                    "name": "_owner",
                    "type": "address"
                }
            ],
            "name": "balanceOf",
            "outputs": [
                {
                    "internalType": "uint256",
                    "name": "balance",
                    "type": "uint256"
                }
            ],
            "stateMutability": "view",
            "type": "function"
        },
        {
            "inputs": [
                {
                    "internalType": "address",
                    "name": "",
                    "type": "address"
                }
            ],
            "name": "balances",
            "outputs": [
                {
                    "internalType": "uint256",
                    "name": "",
                    "type": "uint256"
                }
            ],
            "stateMutability": "view",
            "type": "function"
        },
        {
            "inputs": [],
            "name": "decimals",
            "outputs": [
                {
                    "internalType": "uint8",
                    "name": "",
                    "type": "uint8"
                }
            ],
            "stateMutability": "view",
            "type": "function"
        },
        {
            "inputs": [],
            "name": "name",
            "outputs": [
                {
                    "internalType": "string",
                    "name": "",
                    "type": "string"
                }
            ],
            "stateMutability": "view",
            "type": "function"
        },
        {
            "inputs": [],
            "name": "symbol",
            "outputs": [
                {
                    "internalType": "string",
                    "name": "",
                    "type": "string"
                }
            ],
            "stateMutability": "view",
            "type": "function"
        },
        {
            "inputs": [],
            "name": "totSupply",
            "outputs": [
                {
                    "internalType": "uint256",
                    "name": "",
                    "type": "uint256"
                }
            ],
            "stateMutability": "view",
            "type": "function"
        },
        {
            "inputs": [],
            "name": "totalSupply",
            "outputs": [
                {
                    "internalType": "uint256",
                    "name": "totSupp",
                    "type": "uint256"
                }
            ],
            "stateMutability": "view",
            "type": "function"
        },
        {
            "inputs": [
                {
                    "internalType": "address",
                    "name": "_to",
                    "type": "address"
                },
                {
                    "internalType": "uint256",
                    "name": "_value",
                    "type": "uint256"
                }
            ],
            "name": "transfer",
            "outputs": [
                {
                    "internalType": "bool",
                    "name": "success",
                    "type": "bool"
                }
            ],
            "stateMutability": "nonpayable",
            "type": "function"
        },
        {
            "inputs": [
                {
                    "internalType": "address",
                    "name": "_from",
                    "type": "address"
                },
                {
                    "internalType": "address",
                    "name": "_to",
                    "type": "address"
                },
                {
                    "internalType": "uint256",
                    "name": "_value",
                    "type": "uint256"
                }
            ],
            "name": "transferFrom",
            "outputs": [
                {
                    "internalType": "bool",
                    "name": "success",
                    "type": "bool"
                }
            ],
            "stateMutability": "nonpayable",
            "type": "function"
        }
    ],
    "bytecode": "60806040523480156200001157600080fd5b5060405162000ac438038062000ac4833981016040819052620000349162000147565b3360009081526020819052604090208490556002849055600362000059848262000265565b506004805460ff191660ff8416179055600562000077828262000265565b505050505062000331565b634e487b7160e01b600052604160045260246000fd5b600082601f830112620000aa57600080fd5b81516001600160401b0380821115620000c757620000c762000082565b604051601f8301601f19908116603f01168101908282118183101715620000f257620000f262000082565b816040528381526020925086838588010111156200010f57600080fd5b600091505b8382101562000133578582018301518183018401529082019062000114565b600093810190920192909252949350505050565b600080600080608085870312156200015e57600080fd5b845160208601519094506001600160401b03808211156200017e57600080fd5b6200018c8883890162000098565b94506040870151915060ff82168214620001a557600080fd5b606087015191935080821115620001bb57600080fd5b50620001ca8782880162000098565b91505092959194509250565b600181811c90821680620001eb57607f821691505b6020821081036200020c57634e487b7160e01b600052602260045260246000fd5b50919050565b601f8211156200026057600081815260208120601f850160051c810160208610156200023b5750805b601f850160051c820191505b818110156200025c5782815560010162000247565b5050505b505050565b81516001600160401b0381111562000281576200028162000082565b6200029981620002928454620001d6565b8462000212565b602080601f831160018114620002d15760008415620002b85750858301515b600019600386901b1c1916600185901b1785556200025c565b600085815260208120601f198616915b828110156200030257888601518255948401946001909101908401620002e1565b5085821015620003215787850151600019600388901b60f8161c191681555b5050505050600190811b01905550565b61078380620003416000396000f3fe608060405234801561001057600080fd5b50600436106100b45760003560e01c80635c658165116100715780635c6581651461015e57806370a082311461018957806381fbf0a5146101b257806395d89b41146101bb578063a9059cbb146101c3578063dd62ed3e146101d657600080fd5b806306fdde03146100b9578063095ea7b3146100d757806318160ddd146100fa57806323b872dd1461010c57806327e235e31461011f578063313ce5671461013f575b600080fd5b6100c161020f565b6040516100ce91906105b2565b60405180910390f35b6100ea6100e536600461061c565b61029d565b60405190151581526020016100ce565b6002545b6040519081526020016100ce565b6100ea61011a366004610646565b61030a565b6100fe61012d366004610682565b60006020819052908152604090205481565b60045461014c9060ff1681565b60405160ff90911681526020016100ce565b6100fe61016c3660046106a4565b600160209081526000928352604080842090915290825290205481565b6100fe610197366004610682565b6001600160a01b031660009081526020819052604090205490565b6100fe60025481565b6100c16104a8565b6100ea6101d136600461061c565b6104b5565b6100fe6101e43660046106a4565b6001600160a01b03918216600090815260016020908152604080832093909416825291909152205490565b6003805461021c906106d7565b80601f0160208091040260200160405190810160405280929190818152602001828054610248906106d7565b80156102955780601f1061026a57610100808354040283529160200191610295565b820191906000526020600020905b81548152906001019060200180831161027857829003601f168201915b505050505081565b3360008181526001602090815260408083206001600160a01b038716808552925280832085905551919290917f8c5be1e5ebec7d5bd14f71427d1e84f3dd0314c0f7b2291e5b200ac8c7c3b925906102f89086815260200190565b60405180910390a35060015b92915050565b6001600160a01b038316600081815260016020908152604080832033845282528083205493835290829052812054909190831180159061034a5750828110155b6103b35760405162461bcd60e51b815260206004820152602f60248201527f496e73756666696369656e7420616c6c6f7765642066756e647320666f72207460448201526e3930b739b332b91039b7bab931b29760891b60648201526084015b60405180910390fd5b6001600160a01b038416600090815260208190526040812080548592906103db908490610727565b90915550506001600160a01b0385166000908152602081905260408120805485929061040890849061073a565b9091555050600019811015610450576001600160a01b03851660009081526001602090815260408083203384529091528120805485929061044a90849061073a565b90915550505b836001600160a01b0316856001600160a01b03167fddf252ad1be2c89b69c2b068fc378daa952ba7f163c4a11628f55a4df523b3ef8560405161049591815260200190565b60405180910390a3506001949350505050565b6005805461021c906106d7565b336000908152602081905260408120548211156105245760405162461bcd60e51b815260206004820152602760248201527f496e73756666696369656e742066756e647320666f72207472616e736665722060448201526639b7bab931b29760c91b60648201526084016103aa565b336000908152602081905260408120805484929061054390849061073a565b90915550506001600160a01b03831660009081526020819052604081208054849290610570908490610727565b90915550506040518281526001600160a01b0384169033907fddf252ad1be2c89b69c2b068fc378daa952ba7f163c4a11628f55a4df523b3ef906020016102f8565b600060208083528351808285015260005b818110156105df578581018301518582016040015282016105c3565b506000604082860101526040601f19601f8301168501019250505092915050565b80356001600160a01b038116811461061757600080fd5b919050565b6000806040838503121561062f57600080fd5b61063883610600565b946020939093013593505050565b60008060006060848603121561065b57600080fd5b61066484610600565b925061067260208501610600565b9150604084013590509250925092565b60006020828403121561069457600080fd5b61069d82610600565b9392505050565b600080604083850312156106b757600080fd5b6106c083610600565b91506106ce60208401610600565b90509250929050565b600181811c908216806106eb57607f821691505b60208210810361070b57634e487b7160e01b600052602260045260246000fd5b50919050565b634e487b7160e01b600052601160045260246000fd5b8082018082111561030457610304610711565b818103818111156103045761030461071156fea2646970667358221220ac82dc456947d98010ca73d18b87e71f025a315984d47e800cfbde2fce7689c564736f6c63430008130033",
    "sourcePath": "/home/ruksad/Documents/learn/blockChain/SupplyChainSmartContract/contracts/erc20Token.sol",
    "compiler": {
        "name": "solc",
        "version": "0.8.19+commit.7dd6d404"
    },
    "functionHashes": {
        "allowance(address,address)": "dd62ed3e",
        "allowed(address,address)": "5c658165",
        "approve(address,uint256)": "095ea7b3",
        "balanceOf(address)": "70a08231",
        "balances(address)": "27e235e3",
        "decimals()": "313ce567",
        "name()": "06fdde03",
        "symbol()": "95d89b41",
        "totSupply()": "81fbf0a5",
        "totalSupply()": "18160ddd",
        "transfer(address,uint256)": "a9059cbb",
        "transferFrom(address,address,uint256)": "23b872dd"
    },
    "gasEstimates": {
        "creation": {
            "codeDepositCost": "384600",
            "executionCost": "infinite",
            "totalCost": "infinite"
        },
        "external": {
            "allowance(address,address)": "infinite",
            "allowed(address,address)": "infinite",
            "approve(address,uint256)": "24523",
            "balanceOf(address)": "2562",
            "balances(address)": "2611",
            "decimals()": "2424",
            "name()": "infinite",
            "symbol()": "infinite",
            "totSupply()": "2339",
            "totalSupply()": "2326",
            "transfer(address,uint256)": "infinite",
            "transferFrom(address,address,uint256)": "infinite"
        }
    }
}